{
  "contractName": "RaffleContract",
  "abi": [
    {
      "inputs": [],
      "payable": false,
      "stateMutability": "nonpayable",
      "type": "constructor"
    },
    {
      "anonymous": false,
      "inputs": [
        {
          "indexed": false,
          "internalType": "string",
          "name": "description",
          "type": "string"
        }
      ],
      "name": "LogNewProvableQuery",
      "type": "event"
    },
    {
      "anonymous": false,
      "inputs": [
        {
          "indexed": true,
          "internalType": "address",
          "name": "player",
          "type": "address"
        },
        {
          "indexed": false,
          "internalType": "bytes32",
          "name": "queryId",
          "type": "bytes32"
        },
        {
          "indexed": false,
          "internalType": "uint256",
          "name": "value",
          "type": "uint256"
        }
      ],
      "name": "betPlaced",
      "type": "event"
    },
    {
      "anonymous": false,
      "inputs": [
        {
          "indexed": true,
          "internalType": "address",
          "name": "player",
          "type": "address"
        },
        {
          "indexed": false,
          "internalType": "bytes32",
          "name": "Id",
          "type": "bytes32"
        },
        {
          "indexed": false,
          "internalType": "uint256",
          "name": "value",
          "type": "uint256"
        },
        {
          "indexed": false,
          "internalType": "bool",
          "name": "result",
          "type": "bool"
        }
      ],
      "name": "betTaken",
      "type": "event"
    },
    {
      "anonymous": false,
      "inputs": [
        {
          "indexed": false,
          "internalType": "address",
          "name": "contractOwner",
          "type": "address"
        },
        {
          "indexed": false,
          "internalType": "uint256",
          "name": "funding",
          "type": "uint256"
        }
      ],
      "name": "contractFunded",
      "type": "event"
    },
    {
      "anonymous": false,
      "inputs": [
        {
          "indexed": false,
          "internalType": "uint256",
          "name": "randomNumber",
          "type": "uint256"
        }
      ],
      "name": "generatedRandomNumber",
      "type": "event"
    },
    {
      "constant": true,
      "inputs": [
        {
          "internalType": "bytes32",
          "name": "",
          "type": "bytes32"
        }
      ],
      "name": "betting",
      "outputs": [
        {
          "internalType": "address payable",
          "name": "player",
          "type": "address"
        },
        {
          "internalType": "uint256",
          "name": "value",
          "type": "uint256"
        },
        {
          "internalType": "bool",
          "name": "result",
          "type": "bool"
        },
        {
          "internalType": "uint256",
          "name": "timePlaced",
          "type": "uint256"
        }
      ],
      "payable": false,
      "stateMutability": "view",
      "type": "function"
    },
    {
      "constant": true,
      "inputs": [],
      "name": "owner",
      "outputs": [
        {
          "internalType": "address",
          "name": "",
          "type": "address"
        }
      ],
      "payable": false,
      "stateMutability": "view",
      "type": "function"
    },
    {
      "constant": true,
      "inputs": [
        {
          "internalType": "address",
          "name": "",
          "type": "address"
        }
      ],
      "name": "waiting",
      "outputs": [
        {
          "internalType": "bool",
          "name": "",
          "type": "bool"
        }
      ],
      "payable": false,
      "stateMutability": "view",
      "type": "function"
    },
    {
      "constant": false,
      "inputs": [
        {
          "internalType": "bytes32",
          "name": "_myid",
          "type": "bytes32"
        },
        {
          "internalType": "string",
          "name": "_result",
          "type": "string"
        }
      ],
      "name": "__callback",
      "outputs": [],
      "payable": false,
      "stateMutability": "nonpayable",
      "type": "function"
    },
    {
      "constant": false,
      "inputs": [
        {
          "internalType": "bytes32",
          "name": "_queryId",
          "type": "bytes32"
        },
        {
          "internalType": "string",
          "name": "_result",
          "type": "string"
        },
        {
          "internalType": "bytes",
          "name": "_proof",
          "type": "bytes"
        }
      ],
      "name": "__callback",
      "outputs": [],
      "payable": false,
      "stateMutability": "nonpayable",
      "type": "function"
    },
    {
      "constant": false,
      "inputs": [],
      "name": "flip",
      "outputs": [],
      "payable": true,
      "stateMutability": "payable",
      "type": "function"
    },
    {
      "constant": false,
      "inputs": [],
      "name": "withdrawAll",
      "outputs": [
        {
          "internalType": "uint256",
          "name": "",
          "type": "uint256"
        }
      ],
      "payable": false,
      "stateMutability": "nonpayable",
      "type": "function"
    },
    {
      "constant": false,
      "inputs": [],
      "name": "fundContract",
      "outputs": [
        {
          "internalType": "uint256",
          "name": "",
          "type": "uint256"
        }
      ],
      "payable": true,
      "stateMutability": "payable",
      "type": "function"
    },
    {
      "constant": true,
      "inputs": [],
      "name": "getContractBalance",
      "outputs": [
        {
          "internalType": "uint256",
          "name": "",
          "type": "uint256"
        }
      ],
      "payable": false,
      "stateMutability": "view",
      "type": "function"
    }
  ],
  "bytecode": "0x60806040523480156200001157600080fd5b50336000806101000a81548173ffffffffffffffffffffffffffffffffffffffff021916908373ffffffffffffffffffffffffffffffffffffffff16021790555062000067603060f81b6200006d60201b60201c565b62000a91565b600073ffffffffffffffffffffffffffffffffffffffff16600260009054906101000a900473ffffffffffffffffffffffffffffffffffffffff1673ffffffffffffffffffffffffffffffffffffffff161480620000fd57506000620000fb600260009054906101000a900473ffffffffffffffffffffffffffffffffffffffff16620003d360201b60201c565b145b156200011757620001156000620003de60201b60201c565b505b600260009054906101000a900473ffffffffffffffffffffffffffffffffffffffff1673ffffffffffffffffffffffffffffffffffffffff166338cc48316040518163ffffffff1660e01b8152600401602060405180830381600087803b1580156200018257600080fd5b505af115801562000197573d6000803e3d6000fd5b505050506040513d6020811015620001ae57600080fd5b810190808051906020019092919050505073ffffffffffffffffffffffffffffffffffffffff16600160009054906101000a900473ffffffffffffffffffffffffffffffffffffffff1673ffffffffffffffffffffffffffffffffffffffff1614620002fd57600260009054906101000a900473ffffffffffffffffffffffffffffffffffffffff1673ffffffffffffffffffffffffffffffffffffffff166338cc48316040518163ffffffff1660e01b8152600401602060405180830381600087803b1580156200027f57600080fd5b505af115801562000294573d6000803e3d6000fd5b505050506040513d6020811015620002ab57600080fd5b8101908080519060200190929190505050600160006101000a81548173ffffffffffffffffffffffffffffffffffffffff021916908373ffffffffffffffffffffffffffffffffffffffff1602179055505b600160009054906101000a900473ffffffffffffffffffffffffffffffffffffffff1673ffffffffffffffffffffffffffffffffffffffff1663688dcfd7826040518263ffffffff1660e01b815260040180827effffffffffffffffffffffffffffffffffffffffffffffffffffffffffffff19167effffffffffffffffffffffffffffffffffffffffffffffffffffffffffffff19168152602001915050600060405180830381600087803b158015620003b757600080fd5b505af1158015620003cc573d6000803e3d6000fd5b5050505050565b6000813b9050919050565b6000620003f0620003f760201b60201c565b9050919050565b6000806200041f731d3b2638a7cc9f2cb3d298a3da7a90b67e5506ed620003d360201b60201c565b1115620004cb57731d3b2638a7cc9f2cb3d298a3da7a90b67e5506ed600260006101000a81548173ffffffffffffffffffffffffffffffffffffffff021916908373ffffffffffffffffffffffffffffffffffffffff160217905550620004c16040518060400160405280600b81526020017f6574685f6d61696e6e6574000000000000000000000000000000000000000000815250620009c660201b60201c565b60019050620009c3565b6000620004f273c03a2615d5efaf5f49f60b7bb6583eaec212fdf1620003d360201b60201c565b11156200059e5773c03a2615d5efaf5f49f60b7bb6583eaec212fdf1600260006101000a81548173ffffffffffffffffffffffffffffffffffffffff021916908373ffffffffffffffffffffffffffffffffffffffff160217905550620005946040518060400160405280600c81526020017f6574685f726f707374656e330000000000000000000000000000000000000000815250620009c660201b60201c565b60019050620009c3565b6000620005c573b7a07bcf2ba2f2703b24c0691b5278999c59ac7e620003d360201b60201c565b1115620006715773b7a07bcf2ba2f2703b24c0691b5278999c59ac7e600260006101000a81548173ffffffffffffffffffffffffffffffffffffffff021916908373ffffffffffffffffffffffffffffffffffffffff160217905550620006676040518060400160405280600981526020017f6574685f6b6f76616e0000000000000000000000000000000000000000000000815250620009c660201b60201c565b60019050620009c3565b60006200069873146500cfd35b22e4a392fe0adc06de1a1368ed48620003d360201b60201c565b1115620007445773146500cfd35b22e4a392fe0adc06de1a1368ed48600260006101000a81548173ffffffffffffffffffffffffffffffffffffffff021916908373ffffffffffffffffffffffffffffffffffffffff1602179055506200073a6040518060400160405280600b81526020017f6574685f72696e6b656279000000000000000000000000000000000000000000815250620009c660201b60201c565b60019050620009c3565b60006200076b73a2998efd205fb9d4b4963afb70778d6354ad3a41620003d360201b60201c565b1115620008175773a2998efd205fb9d4b4963afb70778d6354ad3a41600260006101000a81548173ffffffffffffffffffffffffffffffffffffffff021916908373ffffffffffffffffffffffffffffffffffffffff1602179055506200080d6040518060400160405280600a81526020017f6574685f676f65726c6900000000000000000000000000000000000000000000815250620009c660201b60201c565b60019050620009c3565b60006200083e736f485c8bf6fc43ea212e93bbf8ce046c7f1cb475620003d360201b60201c565b1115620008a457736f485c8bf6fc43ea212e93bbf8ce046c7f1cb475600260006101000a81548173ffffffffffffffffffffffffffffffffffffffff021916908373ffffffffffffffffffffffffffffffffffffffff16021790555060019050620009c3565b6000620008cb7320e12a1f859b3feae5fb2a0a32c18f5a65555bbf620003d360201b60201c565b111562000931577320e12a1f859b3feae5fb2a0a32c18f5a65555bbf600260006101000a81548173ffffffffffffffffffffffffffffffffffffffff021916908373ffffffffffffffffffffffffffffffffffffffff16021790555060019050620009c3565b6000620009587351efaf4c8b3c9afbd5ab9f4bbc82784ab6ef8faa620003d360201b60201c565b1115620009be577351efaf4c8b3c9afbd5ab9f4bbc82784ab6ef8faa600260006101000a81548173ffffffffffffffffffffffffffffffffffffffff021916908373ffffffffffffffffffffffffffffffffffffffff16021790555060019050620009c3565b600090505b90565b8060039080519060200190620009de929190620009e2565b5050565b828054600181600116156101000203166002900490600052602060002090601f016020900481019282601f1062000a2557805160ff191683800117855562000a56565b8280016001018555821562000a56579182015b8281111562000a5557825182559160200191906001019062000a38565b5b50905062000a65919062000a69565b5090565b62000a8e91905b8082111562000a8a57600081600090555060010162000a70565b5090565b90565b613ef38062000aa16000396000f3fe6080604052600436106100865760003560e01c8063853828b611610059578063853828b6146103855780638da5cb5b146103b0578063bd097e2114610407578063cde4efa914610425578063e437786d1461042f57610086565b806327dc297e1461008b578063303b2f4b1461015d57806338bbfa50146101f15780636f9fb98a1461035a575b600080fd5b34801561009757600080fd5b5061015b600480360360408110156100ae57600080fd5b8101908080359060200190929190803590602001906401000000008111156100d557600080fd5b8201836020820111156100e757600080fd5b8035906020019184600183028401116401000000008311171561010957600080fd5b91908080601f016020809104026020016040519081016040528093929190818152602001838380828437600081840152601f19601f820116905080830192505050505050509192919290505050610498565b005b34801561016957600080fd5b506101966004803603602081101561018057600080fd5b81019080803590602001909291905050506104db565b604051808573ffffffffffffffffffffffffffffffffffffffff1673ffffffffffffffffffffffffffffffffffffffff1681526020018481526020018315151515815260200182815260200194505050505060405180910390f35b3480156101fd57600080fd5b506103586004803603606081101561021457600080fd5b81019080803590602001909291908035906020019064010000000081111561023b57600080fd5b82018360208201111561024d57600080fd5b8035906020019184600183028401116401000000008311171561026f57600080fd5b91908080601f016020809104026020016040519081016040528093929190818152602001838380828437600081840152601f19601f820116905080830192505050505050509192919290803590602001906401000000008111156102d257600080fd5b8201836020820111156102e457600080fd5b8035906020019184600183028401116401000000008311171561030657600080fd5b91908080601f016020809104026020016040519081016040528093929190818152602001838380828437600081840152601f19601f820116905080830192505050505050509192919290505050610538565b005b34801561036657600080fd5b5061036f610a24565b6040518082815260200191505060405180910390f35b34801561039157600080fd5b5061039a610a48565b6040518082815260200191505060405180910390f35b3480156103bc57600080fd5b506103c5610b3f565b604051808273ffffffffffffffffffffffffffffffffffffffff1673ffffffffffffffffffffffffffffffffffffffff16815260200191505060405180910390f35b61040f610b64565b6040518082815260200191505060405180910390f35b61042d610c3e565b005b34801561043b57600080fd5b5061047e6004803603602081101561045257600080fd5b81019080803573ffffffffffffffffffffffffffffffffffffffff169060200190929190505050610f23565b604051808215151515815260200191505060405180910390f35b6104d7828260006040519080825280601f01601f1916602001820160405280156104d15781602001600182028038833980820191505090505b50610538565b5050565b60076020528060005260406000206000915090508060000160009054906101000a900473ffffffffffffffffffffffffffffffffffffffff16908060010154908060020160009054906101000a900460ff16908060030154905084565b610540610f43565b73ffffffffffffffffffffffffffffffffffffffff163373ffffffffffffffffffffffffffffffffffffffff161461057757600080fd5b6000610584848484611263565b60ff161461059157610a1f565b60006002836040516020018082805190602001908083835b602083106105cc57805182526020820191506020810190506020830392506105a9565b6001836020036101000a0380198251168184511680821785525050505050509050019150506040516020818303038152906040528051906020012060001c8161061157fe5b06905060008114156106515760006007600086815260200190815260200160002060020160006101000a81548160ff021916908315150217905550610887565b60018114156107245760016007600086815260200190815260200160002060020160006101000a81548160ff0219169083151502179055506007600085815260200190815260200160002060000160009054906101000a900473ffffffffffffffffffffffffffffffffffffffff1673ffffffffffffffffffffffffffffffffffffffff166108fc60026007600088815260200190815260200160002060010154029081150290604051600060405180830381858888f1935050505015801561071e573d6000803e3d6000fd5b50610886565b620927c0600760008681526020019081526020016000206003015442031115610885576000600860006007600088815260200190815260200160002060000160009054906101000a900473ffffffffffffffffffffffffffffffffffffffff1673ffffffffffffffffffffffffffffffffffffffff1673ffffffffffffffffffffffffffffffffffffffff16815260200190815260200160002060006101000a81548160ff021916908315150217905550600060076000868152602001908152602001600020600101819055506007600085815260200190815260200160002060000160009054906101000a900473ffffffffffffffffffffffffffffffffffffffff1673ffffffffffffffffffffffffffffffffffffffff166108fc60076000878152602001908152602001600020600101549081150290604051600060405180830381858888f19350505050158015610883573d6000803e3d6000fd5b505b5b5b6000600860006007600088815260200190815260200160002060000160009054906101000a900473ffffffffffffffffffffffffffffffffffffffff1673ffffffffffffffffffffffffffffffffffffffff1673ffffffffffffffffffffffffffffffffffffffff16815260200190815260200160002060006101000a81548160ff0219169083151502179055507fc13d60fe9dffdb6908d2d446cd18134373a51db0738ee04f296eeb9128121cbc816040518082815260200191505060405180910390a16007600085815260200190815260200160002060000160009054906101000a900473ffffffffffffffffffffffffffffffffffffffff1673ffffffffffffffffffffffffffffffffffffffff167f6938cbf453af775aeb0f0d1c25d85e2b060360487baf9892b54261adcb6b2d318560076000888152602001908152602001600020600101546007600089815260200190815260200160002060020160009054906101000a900460ff166040518084815260200183815260200182151515158152602001935050505060405180910390a2505b505050565b6000803073ffffffffffffffffffffffffffffffffffffffff163190508091505090565b60008060009054906101000a900473ffffffffffffffffffffffffffffffffffffffff1673ffffffffffffffffffffffffffffffffffffffff163373ffffffffffffffffffffffffffffffffffffffff1614610aa357600080fd5b3373ffffffffffffffffffffffffffffffffffffffff166108fc3073ffffffffffffffffffffffffffffffffffffffff16319081150290604051600060405180830381858888f19350505050158015610b00573d6000803e3d6000fd5b5060003073ffffffffffffffffffffffffffffffffffffffff163114610b2257fe5b3073ffffffffffffffffffffffffffffffffffffffff1631905090565b6000809054906101000a900473ffffffffffffffffffffffffffffffffffffffff1681565b60008060009054906101000a900473ffffffffffffffffffffffffffffffffffffffff1673ffffffffffffffffffffffffffffffffffffffff163373ffffffffffffffffffffffffffffffffffffffff1614610bbf57600080fd5b6000341415610bcd57600080fd5b7fff043843182fec3fbcbc695545b7652d340a2cf0919615adb04d98a00e7de8e23334604051808373ffffffffffffffffffffffffffffffffffffffff1673ffffffffffffffffffffffffffffffffffffffff1681526020018281526020019250505060405180910390a134905090565b662386f26fc10000600060023073ffffffffffffffffffffffffffffffffffffffff163181610c6957fe5b04905080341115610cc5576040517f08c379a0000000000000000000000000000000000000000000000000000000008152600401808060200182810382526023815260200180613e326023913960400191505060405180910390fd5b81341015610d1e576040517f08c379a000000000000000000000000000000000000000000000000000000000815260040180806020018281038252602a815260200180613e95602a913960400191505060405180910390fd5b60001515600860003373ffffffffffffffffffffffffffffffffffffffff1673ffffffffffffffffffffffffffffffffffffffff16815260200190815260200160002060009054906101000a900460ff16151514610d7b57600080fd5b6001600860003373ffffffffffffffffffffffffffffffffffffffff1673ffffffffffffffffffffffffffffffffffffffff16815260200190815260200160002060006101000a81548160ff0219169083151502179055506000809050600062030d409050610dec82600183611393565b600681905550600042905060405180608001604052803373ffffffffffffffffffffffffffffffffffffffff1681526020013481526020016000151581526020018281525060076000600654815260200190815260200160002060008201518160000160006101000a81548173ffffffffffffffffffffffffffffffffffffffff021916908373ffffffffffffffffffffffffffffffffffffffff1602179055506020820151816001015560408201518160020160006101000a81548160ff021916908315150217905550606082015181600301559050503373ffffffffffffffffffffffffffffffffffffffff167ffc2fe68101fc6915d659df206ef61ccafa88befcd022d6a9b8fadab1f569688460065434604051808381526020018281526020019250505060405180910390a25050505050565b60086020528060005260406000206000915054906101000a900460ff1681565b60008073ffffffffffffffffffffffffffffffffffffffff16600260009054906101000a900473ffffffffffffffffffffffffffffffffffffffff1673ffffffffffffffffffffffffffffffffffffffff161480610fcb57506000610fc9600260009054906101000a900473ffffffffffffffffffffffffffffffffffffffff1661192e565b145b15610fdc57610fda6000611939565b505b600260009054906101000a900473ffffffffffffffffffffffffffffffffffffffff1673ffffffffffffffffffffffffffffffffffffffff166338cc48316040518163ffffffff1660e01b8152600401602060405180830381600087803b15801561104657600080fd5b505af115801561105a573d6000803e3d6000fd5b505050506040513d602081101561107057600080fd5b810190808051906020019092919050505073ffffffffffffffffffffffffffffffffffffffff16600160009054906101000a900473ffffffffffffffffffffffffffffffffffffffff1673ffffffffffffffffffffffffffffffffffffffff16146111bb57600260009054906101000a900473ffffffffffffffffffffffffffffffffffffffff1673ffffffffffffffffffffffffffffffffffffffff166338cc48316040518163ffffffff1660e01b8152600401602060405180830381600087803b15801561113f57600080fd5b505af1158015611153573d6000803e3d6000fd5b505050506040513d602081101561116957600080fd5b8101908080519060200190929190505050600160006101000a81548173ffffffffffffffffffffffffffffffffffffffff021916908373ffffffffffffffffffffffffffffffffffffffff1602179055505b600160009054906101000a900473ffffffffffffffffffffffffffffffffffffffff1673ffffffffffffffffffffffffffffffffffffffff1663c281d19e6040518163ffffffff1660e01b815260040160206040518083038186803b15801561122357600080fd5b505afa158015611237573d6000803e3d6000fd5b505050506040513d602081101561124d57600080fd5b8101908080519060200190929190505050905090565b60007f4c000000000000000000000000000000000000000000000000000000000000008260008151811061129357fe5b602001015160f81c60f81b7effffffffffffffffffffffffffffffffffffffffffffffffffffffffffffff191614158061132657507f5000000000000000000000000000000000000000000000000000000000000000826001815181106112f657fe5b602001015160f81c60f81b7effffffffffffffffffffffffffffffffffffffffffffffffffffffffffffff191614155b806113525750600160ff168260028151811061133e57fe5b602001015160f81c60f81b60f81c60ff1614155b15611360576001905061138c565b600061137583868661137061194a565b6119ec565b90508061138657600291505061138c565b60009150505b9392505050565b600080831180156113a5575060208311155b6113ae57600080fd5b600a84029350606060016040519080825280601f01601f1916602001820160405280156113ea5781602001600182028038833980820191505090505b5090508360f81b816000815181106113fe57fe5b60200101907effffffffffffffffffffffffffffffffffffffffffffffffffffffffffffff1916908160001a905350606060206040519080825280601f01601f1916602001820160405280156114635781602001600182028038833980820191505090505b509050606060206040519080825280601f01601f19166020018201604052801561149c5781602001600182028038833980820191505090505b50905060006114a9612097565b905060208352424118600143034018602084015260208252806020830152606060206040519080825280601f01601f1916602001820160405280156114fd5781602001600182028038833980820191505090505b509050886020820152606060086040519080825280601f01601f19166020018201604052801561153c5781602001600182028038833980820191505090505b50905061154f82601860088460006123b7565b50611558613d4b565b604051806080016040528087815260200188815260200186815260200184815250905060006115bd6040518060400160405280600681526020017f72616e646f6d0000000000000000000000000000000000000000000000000000815250838c612416565b9050606060086040519080825280601f01601f1916602001820160405280156115f55781602001600182028038833980820191505090505b50905060208401517f0100000000000000000000000000000000000000000000000000000000000000810460278301537e01000000000000000000000000000000000000000000000000000000000000810460268301537d010000000000000000000000000000000000000000000000000000000000810460258301537c0100000000000000000000000000000000000000000000000000000000810460248301537b01000000000000000000000000000000000000000000000000000000810460238301537a01000000000000000000000000000000000000000000000000000081046022830153790100000000000000000000000000000000000000000000000000810460218301537801000000000000000000000000000000000000000000000000810460208301535061191b82828560016004811061173457fe5b602002015160028760006004811061174857fe5b60200201516040518082805190602001908083835b60208310611780578051825260208201915060208101905060208303925061175d565b6001836020036101000a038019825116818451168082178552505050505050905001915050602060405180830381855afa1580156117c2573d6000803e3d6000fd5b5050506040513d60208110156117d757600080fd5b8101908080519060200190929190505050876002600481106117f557fe5b60200201516040516020018085805190602001908083835b60208310611830578051825260208201915060208101905060208303925061180d565b6001836020036101000a03801982511681845116808217855250505050505090500184805190602001908083835b60208310611881578051825260208201915060208101905060208303925061185e565b6001836020036101000a03801982511681845116808217855250505050505090500183815260200182805190602001908083835b602083106118d857805182526020820191506020810190506020830392506118b5565b6001836020036101000a03801982511681845116808217855250505050505090500194505050505060405160208183030381529060405280519060200120612785565b8199505050505050505050509392505050565b6000813b9050919050565b60006119436127a1565b9050919050565b606060038054600181600116156101000203166002900480601f0160208091040260200160405190810160405280929190818152602001828054600181600116156101000203166002900480156119e25780601f106119b7576101008083540402835291602001916119e2565b820191906000526020600020905b8154815290600101906020018083116119c557829003601f168201915b5050505050905090565b6000806020600287604581518110611a0057fe5b602001015160f81c60f81b60f81c60ff1601604401019050606060206040519080825280601f01601f191660200182016040528015611a4e5781602001600182028038833980820191505090505b509050611a60878360208460006123b7565b50600284876040516020018083805190602001908083835b60208310611a9b5780518252602082019150602081019050602083039250611a78565b6001836020036101000a038019825116818451168082178552505050505050905001828152602001925050506040516020818303038152906040526040518082805190602001908083835b60208310611b095780518252602082019150602081019050602083039250611ae6565b6001836020036101000a038019825116818451168082178552505050505050905001915050602060405180830381855afa158015611b4b573d6000803e3d6000fd5b5050506040513d6020811015611b6057600080fd5b81019080805190602001909291905050506040516020018082815260200191505060405160208183030381529060405280519060200120818051906020012014611baf5760009250505061208f565b60606002886001604986010181518110611bc557fe5b602001015160f81c60f81b60f81c60ff16016040519080825280601f01601f191660200182016040528015611c095781602001600182028038833980820191505090505b509050611c1e886049850183518460006123b7565b50611ce96002826040518082805190602001908083835b60208310611c585780518252602082019150602081019050602083039250611c35565b6001836020036101000a038019825116818451168082178552505050505050905001915050602060405180830381855afa158015611c9a573d6000803e3d6000fd5b5050506040513d6020811015611caf57600080fd5b8101908080519060200190929190505050878a6008602088010181518110611cd357fe5b602001015160f81c60f81b60f81c60ff16612cf8565b611cf9576000935050505061208f565b606060296040519080825280601f01601f191660200182016040528015611d2f5781602001600182028038833980820191505090505b509050611d44896020860160298460006123b7565b506060604080519080825280601f01601f191660200182016040528015611d7a5781602001600182028038833980820191505090505b5090506000604184516029602089010101019050611da08b6040830360408560006123b7565b5060006002836040518082805190602001908083835b60208310611dd95780518252602082019150602081019050602083039250611db6565b6001836020036101000a038019825116818451168082178552505050505050905001915050602060405180830381855afa158015611e1b573d6000803e3d6000fd5b5050506040513d6020811015611e3057600080fd5b8101908080519060200190929190505050905083816040516020018083805190602001908083835b60208310611e7b5780518252602082019150602081019050602083039250611e58565b6001836020036101000a0380198251168184511680821785525050505050509050018281526020019250505060405160208183030381529060405280519060200120600460008d8152602001908152602001600020541415611ef357600460008c815260200190815260200160002060009055611f03565b600097505050505050505061208f565b606060496040519080825280601f01601f191660200182016040528015611f395781602001600182028038833980820191505090505b509050611f4b8d8960498460006123b7565b50611ff46002826040518082805190602001908083835b60208310611f855780518252602082019150602081019050602083039250611f62565b6001836020036101000a038019825116818451168082178552505050505050905001915050602060405180830381855afa158015611fc7573d6000803e3d6000fd5b5050506040513d6020811015611fdc57600080fd5b81019080805190602001909291905050508786612da8565b6120095760009850505050505050505061208f565b6005600083815260200190815260200160002060009054906101000a900460ff16612063576120388d84612f66565b6005600084815260200190815260200160002060006101000a81548160ff0219169083151502179055505b6005600083815260200190815260200160002060009054906101000a900460ff16985050505050505050505b949350505050565b60008073ffffffffffffffffffffffffffffffffffffffff16600260009054906101000a900473ffffffffffffffffffffffffffffffffffffffff1673ffffffffffffffffffffffffffffffffffffffff16148061211f5750600061211d600260009054906101000a900473ffffffffffffffffffffffffffffffffffffffff1661192e565b145b156121305761212e6000611939565b505b600260009054906101000a900473ffffffffffffffffffffffffffffffffffffffff1673ffffffffffffffffffffffffffffffffffffffff166338cc48316040518163ffffffff1660e01b8152600401602060405180830381600087803b15801561219a57600080fd5b505af11580156121ae573d6000803e3d6000fd5b505050506040513d60208110156121c457600080fd5b810190808051906020019092919050505073ffffffffffffffffffffffffffffffffffffffff16600160009054906101000a900473ffffffffffffffffffffffffffffffffffffffff1673ffffffffffffffffffffffffffffffffffffffff161461230f57600260009054906101000a900473ffffffffffffffffffffffffffffffffffffffff1673ffffffffffffffffffffffffffffffffffffffff166338cc48316040518163ffffffff1660e01b8152600401602060405180830381600087803b15801561229357600080fd5b505af11580156122a7573d6000803e3d6000fd5b505050506040513d60208110156122bd57600080fd5b8101908080519060200190929190505050600160006101000a81548173ffffffffffffffffffffffffffffffffffffffff021916908373ffffffffffffffffffffffffffffffffffffffff1602179055505b600160009054906101000a900473ffffffffffffffffffffffffffffffffffffffff1673ffffffffffffffffffffffffffffffffffffffff1663abaa5f3e6040518163ffffffff1660e01b815260040160206040518083038186803b15801561237757600080fd5b505afa15801561238b573d6000803e3d6000fd5b505050506040513d60208110156123a157600080fd5b8101908080519060200190929190505050905090565b60606000828501905080845110156123ce57600080fd5b600086602001905060008460200190505b86886020010182101561240757818901518082880152506020820191506020810190506123df565b85935050505095945050505050565b60008073ffffffffffffffffffffffffffffffffffffffff16600260009054906101000a900473ffffffffffffffffffffffffffffffffffffffff1673ffffffffffffffffffffffffffffffffffffffff16148061249e5750600061249c600260009054906101000a900473ffffffffffffffffffffffffffffffffffffffff1661192e565b145b156124af576124ad6000611939565b505b600260009054906101000a900473ffffffffffffffffffffffffffffffffffffffff1673ffffffffffffffffffffffffffffffffffffffff166338cc48316040518163ffffffff1660e01b8152600401602060405180830381600087803b15801561251957600080fd5b505af115801561252d573d6000803e3d6000fd5b505050506040513d602081101561254357600080fd5b810190808051906020019092919050505073ffffffffffffffffffffffffffffffffffffffff16600160009054906101000a900473ffffffffffffffffffffffffffffffffffffffff1673ffffffffffffffffffffffffffffffffffffffff161461268e57600260009054906101000a900473ffffffffffffffffffffffffffffffffffffffff1673ffffffffffffffffffffffffffffffffffffffff166338cc48316040518163ffffffff1660e01b8152600401602060405180830381600087803b15801561261257600080fd5b505af1158015612626573d6000803e3d6000fd5b505050506040513d602081101561263c57600080fd5b8101908080519060200190929190505050600160006101000a81548173ffffffffffffffffffffffffffffffffffffffff021916908373ffffffffffffffffffffffffffffffffffffffff1602179055505b606060046040519080825280602002602001820160405280156126c557816020015b60608152602001906001900390816126b05790505b509050836000600481106126d557fe5b6020020151816000815181106126e757fe5b6020026020010181905250836001600481106126ff57fe5b60200201518160018151811061271157fe5b60200260200101819052508360026004811061272957fe5b60200201518160028151811061273b57fe5b60200260200101819052508360036004811061275357fe5b60200201518160038151811061276557fe5b602002602001018190525061277b85828561337e565b9150509392505050565b8060046000848152602001908152602001600020819055505050565b6000806127c1731d3b2638a7cc9f2cb3d298a3da7a90b67e5506ed61192e565b111561286357731d3b2638a7cc9f2cb3d298a3da7a90b67e5506ed600260006101000a81548173ffffffffffffffffffffffffffffffffffffffff021916908373ffffffffffffffffffffffffffffffffffffffff16021790555061285a6040518060400160405280600b81526020017f6574685f6d61696e6e65740000000000000000000000000000000000000000008152506138e4565b60019050612cf5565b600061288273c03a2615d5efaf5f49f60b7bb6583eaec212fdf161192e565b11156129245773c03a2615d5efaf5f49f60b7bb6583eaec212fdf1600260006101000a81548173ffffffffffffffffffffffffffffffffffffffff021916908373ffffffffffffffffffffffffffffffffffffffff16021790555061291b6040518060400160405280600c81526020017f6574685f726f707374656e3300000000000000000000000000000000000000008152506138e4565b60019050612cf5565b600061294373b7a07bcf2ba2f2703b24c0691b5278999c59ac7e61192e565b11156129e55773b7a07bcf2ba2f2703b24c0691b5278999c59ac7e600260006101000a81548173ffffffffffffffffffffffffffffffffffffffff021916908373ffffffffffffffffffffffffffffffffffffffff1602179055506129dc6040518060400160405280600981526020017f6574685f6b6f76616e00000000000000000000000000000000000000000000008152506138e4565b60019050612cf5565b6000612a0473146500cfd35b22e4a392fe0adc06de1a1368ed4861192e565b1115612aa65773146500cfd35b22e4a392fe0adc06de1a1368ed48600260006101000a81548173ffffffffffffffffffffffffffffffffffffffff021916908373ffffffffffffffffffffffffffffffffffffffff160217905550612a9d6040518060400160405280600b81526020017f6574685f72696e6b6562790000000000000000000000000000000000000000008152506138e4565b60019050612cf5565b6000612ac573a2998efd205fb9d4b4963afb70778d6354ad3a4161192e565b1115612b675773a2998efd205fb9d4b4963afb70778d6354ad3a41600260006101000a81548173ffffffffffffffffffffffffffffffffffffffff021916908373ffffffffffffffffffffffffffffffffffffffff160217905550612b5e6040518060400160405280600a81526020017f6574685f676f65726c69000000000000000000000000000000000000000000008152506138e4565b60019050612cf5565b6000612b86736f485c8bf6fc43ea212e93bbf8ce046c7f1cb47561192e565b1115612bea57736f485c8bf6fc43ea212e93bbf8ce046c7f1cb475600260006101000a81548173ffffffffffffffffffffffffffffffffffffffff021916908373ffffffffffffffffffffffffffffffffffffffff16021790555060019050612cf5565b6000612c097320e12a1f859b3feae5fb2a0a32c18f5a65555bbf61192e565b1115612c6d577320e12a1f859b3feae5fb2a0a32c18f5a65555bbf600260006101000a81548173ffffffffffffffffffffffffffffffffffffffff021916908373ffffffffffffffffffffffffffffffffffffffff16021790555060019050612cf5565b6000612c8c7351efaf4c8b3c9afbd5ab9f4bbc82784ab6ef8faa61192e565b1115612cf0577351efaf4c8b3c9afbd5ab9f4bbc82784ab6ef8faa600260006101000a81548173ffffffffffffffffffffffffffffffffffffffff021916908373ffffffffffffffffffffffffffffffffffffffff16021790555060019050612cf5565b600090505b90565b6000806001905082845114612d0c57600080fd5b60008090505b83811015612d9c57848181518110612d2657fe5b602001015160f81c60f81b7effffffffffffffffffffffffffffffffffffffffffffffffffffffffffffff1916868260208110612d5f57fe5b1a60f81b7effffffffffffffffffffffffffffffffffffffffffffffffffffffffffffff191614612d8f57600091505b8080600101915050612d12565b50809150509392505050565b6000806000806000606060206040519080825280601f01601f191660200182016040528015612de65781602001600182028038833980820191505090505b5090506000602089600381518110612dfa57fe5b602001015160f81c60f81b60f81c60ff16036004019050612e20898260208560006123b7565b9150606060206040519080825280601f01601f191660200182016040528015612e585781602001600182028038833980820191505090505b509050602282019150612e948a60208c6001860381518110612e7657fe5b602001015160f81c60f81b60f81c60ff1603840160208460006123b7565b90506020830151945060208101519350612eb18b601b87876138fe565b80975081985050508573ffffffffffffffffffffffffffffffffffffffff16898051906020012060001c73ffffffffffffffffffffffffffffffffffffffff161415612f07576001975050505050505050612f5f565b612f148b601c87876138fe565b80975081985050508573ffffffffffffffffffffffffffffffffffffffff16898051906020012060001c73ffffffffffffffffffffffffffffffffffffffff16149750505050505050505b9392505050565b60008060606002856001860181518110612f7c57fe5b602001015160f81c60f81b60f81c60ff16016040519080825280601f01601f191660200182016040528015612fc05781602001600182028038833980820191505090505b509050612fd2858583518460006123b7565b506060604080519080825280601f01601f1916602001820160405280156130085781602001600182028038833980820191505090505b50905061301b86600460408460006123b7565b50606060626040519080825280601f01601f1916602001820160405280156130525781602001600182028038833980820191505090505b509050600160f81b8160008151811061306757fe5b60200101907effffffffffffffffffffffffffffffffffffffffffffffffffffffffffffff1916908160001a9053506130a8876041880360418460016123b7565b5060606040518060400160405280602081526020017ffd94fa71bc0ba10d39d464d0d8f465efeef0a2764e3887fcc9df41ded20f505c81525090506130f381600060208560426123b7565b5061319c6002836040518082805190602001908083835b6020831061312d578051825260208201915060208101905060208303925061310a565b6001836020036101000a038019825116818451168082178552505050505050905001915050602060405180830381855afa15801561316f573d6000803e3d6000fd5b5050506040513d602081101561318457600080fd5b81019080805190602001909291905050508585612da8565b9450846131b157600095505050505050613378565b6060604051806060016040528060408152602001613e55604091399050606060426040519080825280601f01601f1916602001820160405280156132045781602001600182028038833980820191505090505b50905060fe60f81b8160008151811061321957fe5b60200101907effffffffffffffffffffffffffffffffffffffffffffffffffffffffffffff1916908160001a9053506132588a600360418460016123b7565b50606060028b60458151811061326a57fe5b602001015160f81c60f81b60f81c60ff16016040519080825280601f01601f1916602001820160405280156132ae5781602001600182028038833980820191505090505b5090506132c18b604483518460006123b7565b5061336a6002836040518082805190602001908083835b602083106132fb57805182526020820191506020810190506020830392506132d8565b6001836020036101000a038019825116818451168082178552505050505050905001915050602060405180830381855afa15801561333d573d6000803e3d6000fd5b5050506040513d602081101561335257600080fd5b81019080805190602001909291905050508285612da8565b975087985050505050505050505b92915050565b60008073ffffffffffffffffffffffffffffffffffffffff16600260009054906101000a900473ffffffffffffffffffffffffffffffffffffffff1673ffffffffffffffffffffffffffffffffffffffff16148061340657506000613404600260009054906101000a900473ffffffffffffffffffffffffffffffffffffffff1661192e565b145b15613417576134156000611939565b505b600260009054906101000a900473ffffffffffffffffffffffffffffffffffffffff1673ffffffffffffffffffffffffffffffffffffffff166338cc48316040518163ffffffff1660e01b8152600401602060405180830381600087803b15801561348157600080fd5b505af1158015613495573d6000803e3d6000fd5b505050506040513d60208110156134ab57600080fd5b810190808051906020019092919050505073ffffffffffffffffffffffffffffffffffffffff16600160009054906101000a900473ffffffffffffffffffffffffffffffffffffffff1673ffffffffffffffffffffffffffffffffffffffff16146135f657600260009054906101000a900473ffffffffffffffffffffffffffffffffffffffff1673ffffffffffffffffffffffffffffffffffffffff166338cc48316040518163ffffffff1660e01b8152600401602060405180830381600087803b15801561357a57600080fd5b505af115801561358e573d6000803e3d6000fd5b505050506040513d60208110156135a457600080fd5b8101908080519060200190929190505050600160006101000a81548173ffffffffffffffffffffffffffffffffffffffff021916908373ffffffffffffffffffffffffffffffffffffffff1602179055505b6000600160009054906101000a900473ffffffffffffffffffffffffffffffffffffffff1673ffffffffffffffffffffffffffffffffffffffff16632ef3accc86856040518363ffffffff1660e01b81526004018080602001838152602001828103825284818151815260200191508051906020019080838360005b8381101561368d578082015181840152602081019050613672565b50505050905090810190601f1680156136ba5780820380516001836020036101000a031916815260200191505b509350505050602060405180830381600087803b1580156136da57600080fd5b505af11580156136ee573d6000803e3d6000fd5b505050506040513d602081101561370457600080fd5b81019080805190602001909291905050509050823a02670de0b6b3a764000001811115613737576000801b9150506138dd565b606061374285613942565b9050600160009054906101000a900473ffffffffffffffffffffffffffffffffffffffff1673ffffffffffffffffffffffffffffffffffffffff1663c55c1cb68360008985896040518663ffffffff1660e01b8152600401808581526020018060200180602001848152602001838103835286818151815260200191508051906020019080838360005b838110156137e75780820151818401526020810190506137cc565b50505050905090810190601f1680156138145780820380516001836020036101000a031916815260200191505b50838103825285818151815260200191508051906020019080838360005b8381101561384d578082015181840152602081019050613832565b50505050905090810190601f16801561387a5780820380516001836020036101000a031916815260200191505b5096505050505050506020604051808303818588803b15801561389c57600080fd5b505af11580156138b0573d6000803e3d6000fd5b50505050506040513d60208110156138c757600080fd5b8101908080519060200190929190505050925050505b9392505050565b80600390805190602001906138fa929190613d72565b5050565b60008060008060405188815287602082015286604082015285606082015260208160808360006001610bb8f192508051915050818193509350505094509492505050565b606061394c6139c2565b613954613df2565b613960816104006139ce565b61396981613a18565b60008090505b83518110156139ab5761399e84828151811061398757fe5b602002602001015183613a2690919063ffffffff16565b808060010191505061396f565b506139b581613a4b565b8060000151915050919050565b60405180590338823950565b60008190506000602082816139df57fe5b06146139f857602081816139ef57fe5b06602003810190505b808360200181815250506040518084526000815281810160405250505050565b613a23816004613a59565b50565b613a338260028351613a7a565b613a468183613bba90919063ffffffff16565b505050565b613a56816007613a59565b50565b613a76601f60058360ff16901b1783613c6590919063ffffffff16565b5050565b60178111613aa657613aa18160058460ff16901b60ff161784613c6590919063ffffffff16565b613bb5565b60ff8111613ae757613acb601860058460ff16901b1784613c6590919063ffffffff16565b613ae181600185613ca59092919063ffffffff16565b50613bb4565b61ffff8111613b2957613b0d601960058460ff16901b1784613c6590919063ffffffff16565b613b2381600285613ca59092919063ffffffff16565b50613bb3565b63ffffffff8111613b6d57613b51601a60058460ff16901b1784613c6590919063ffffffff16565b613b6781600485613ca59092919063ffffffff16565b50613bb2565b67ffffffffffffffff8111613bb157613b99601b60058460ff16901b1784613c6590919063ffffffff16565b613baf81600885613ca59092919063ffffffff16565b505b5b5b5b5b505050565b613bc2613df2565b82602001518360000151518351011115613bf257613bf1836002613beb86602001518651613d0c565b02613d28565b5b60008060008451905085518051602081830101945086518101825260208701935050505b60208110613c395781518352602083019250602082019150602081039050613c16565b60006001826020036101000a039050801983511681855116818117865250508694505050505092915050565b81602001516001836000015151011115613c8b57613c8a826002846020015102613d28565b5b815180516020818301018381536001820183525050505050565b613cad613df2565b836020015184600001515183011115613cdb57613cda846002613cd4876020015186613d0c565b02613d28565b5b60006001836101000a0390508451805184818301018684198251161781528582018352505050849150509392505050565b600081831115613d1e57829050613d22565b8190505b92915050565b606082600001519050613d3b83836139ce565b613d458382613bba565b50505050565b60405180608001604052806004905b6060815260200190600190039081613d5a5790505090565b828054600181600116156101000203166002900490600052602060002090601f016020900481019282601f10613db357805160ff1916838001178555613de1565b82800160010185558215613de1579182015b82811115613de0578251825591602001919060010190613dc5565b5b509050613dee9190613e0c565b5090565b604051806040016040528060608152602001600081525090565b613e2e91905b80821115613e2a576000816000905550600101613e12565b5090565b9056fe4a61636b706f7420697320746865206d61782062657420796f752063616e206d616b657fb956469c5c9b89840d55b43537e66a98dd4811ea0a27224272c2e5622911e8537a2f8e86a46baec82864e98dd01e9ccc2f8bc5dfc9cbe5a91a290498dd96e4546865206d696e696d756d2062657420796f752063616e206d616b6520697320302e3031204574686572a265627a7a72315820d4a9a91ad92706ee4d063f1568009830d996b646000179d47f5daac7fb7f7d4364736f6c634300050c0032",
  "source": "import\"./Ownable.sol\";\nimport\"./provableAPI.sol\";\n\npragma solidity 0.5.12;\n\ncontract RaffleContract is Ownable, usingProvable {\n    //* Variable Declaration */\n    uint256 constant NUM_RANDOM_BYTES_REQUESTED = 1;    \n    bytes32 queryId;                                    \n    struct Raffle {                                        \n        address payable player;                         \n        uint value;                                     \n        bool result;   \n        uint timePlaced;                                 \n    }\n    //* Events */\n    event betTaken(address indexed player, bytes32 Id, uint value, bool result);\n    event betPlaced(address indexed player,bytes32 queryId, uint value);\n    event contractFunded(address contractOwner, uint funding);\n    event LogNewProvableQuery(string description);\n    event generatedRandomNumber(uint256 randomNumber);\n    //* Mappings */\n    mapping (bytes32 => Raffle) public betting;            \n    mapping (address => bool) public waiting;  \n    // mapping (address => uint256) public raffleParticipants;\n    // uint256 numOfParticipants;\n\n    // function setNumOfParticipants(uint256 _numOfParticipants) public {\n    //     require(_numOfParticipants > 0 && _numOfParticipants < 256);\n    //     numOfParticipants = _numOfParticipants;\n    // }\n\n    //* Constructor */\n    constructor() public {\n        provable_setProof(proofType_Ledger);\n        //flip();\n    }\n\n    //initialize participants into mapping\n    // function initializeParticipants(address payable participant, numOfParticipants) internal {\n    //     for(uint256 i = 0; i < numOfParticipants; i++){\n    //         raffleParticipants[i] = participant[i];\n    //     }\n    // }\n\n    //* Modifiers */\n    modifier costs(uint cost){\n        uint jackpot = address(this).balance / 2;\n        require(msg.value <= jackpot, \"Jackpot is the max bet you can make\");   \n        require(msg.value >= cost, \"The minimum bet you can make is 0.01 Ether\");\n        _;\n    }\n    //* Functions - Setter */\n    //Oracle Callback Function of the flip() function\n    function __callback(bytes32 _queryId, string memory _result, bytes memory _proof) public {\n        require(msg.sender == provable_cbAddress());\n\n        if (provable_randomDS_proofVerify__returnCode(_queryId, _result, _proof) != 0) {\n            /*\n             * @notice  The proof verification has failed! Handle this case\n             *          however you see fit. --> Not sure what to do here.\n            */\n        }\n        else {\n        //Final result of random number creation (0-255 % 2 == 0 || 1)\n        uint256 randomNumber = uint256(keccak256(abi.encodePacked(_result))) % 2; //change to % numberOfParticipants\n        //Condition decision: false == lose || true == win\n        if(randomNumber == 0){\n            betting[_queryId].result = false;\n        }\n        else if(randomNumber == 1){\n            betting[_queryId].result = true;\n            betting[_queryId].player.transfer((betting[_queryId].value)*2);\n        }else if(now - betting[_queryId].timePlaced > 600000) {\n            waiting[betting[_queryId].player] = false;\n            betting[_queryId].value = 0;\n            betting[_queryId].player.transfer((betting[_queryId].value));\n        }\n                                            //!!!!Write functionality to send prize to participant with number corresponding to randomNumber;!!!!\n        //Player address is not on waiting any more and can play again\n        waiting[betting[_queryId].player] = false;\n        //Emit event to Blockchain log (PlayerAddress, BetId, BetAmount, Result)\n        emit generatedRandomNumber(randomNumber);\n        emit betTaken(betting[_queryId].player, _queryId, betting[_queryId].value, betting[_queryId].result);\n       }\n    }\n    //Placing a bet and simulate coin flip \n    function flip() public payable costs(0.01 ether){\n        //Condition that player has no ongoing bet transaction\n        require(waiting[msg.sender] == false);\n        //Player address gets into waiting mode => Player is not able to place an other bet in this time\n        waiting[msg.sender] = true;\n\n        uint256 QUERY_EXECUTION_DELAY = 0;      //config: execution delay (0 for no delay)\n        uint256 GAS_FOR_CALLBACK = 200000;      //config: gas fee for calling __callback function (200000 is standard)\n        //Calling oracle to make random number request\n        queryId = provable_newRandomDSQuery(QUERY_EXECUTION_DELAY, NUM_RANDOM_BYTES_REQUESTED, GAS_FOR_CALLBACK);     //function to query a random number, it will call the __callback function\n        \n        uint queryTime = now;\n\n        //Initialize new Bet with player values and bind it to oracle queryId\n        betting[queryId] = Raffle({player: msg.sender, value: msg.value, result: false, timePlaced: queryTime});\n        //Emit Bet values as an event to Blockchain log \n        emit betPlaced(msg.sender, queryId, msg.value);\n        //emit LogNewProvableQuery(\"Provable query was sent, standing by for answer...\");\n    }\n    //Withdraw Funds - get Ether from contract\n    function withdrawAll() public onlyOwner returns(uint){\n        //Should require that no bet is prozess! Should wait and disalow all new bets!\n        msg.sender.transfer(address(this).balance);\n        assert(address(this).balance == 0);\n        return address(this).balance;\n    }\n    //Fund the Contract - put Ether into contract\n    function fundContract() public payable onlyOwner returns(uint){\n        require(msg.value != 0);\n        emit contractFunded(msg.sender, msg.value);\n        return msg.value;\n    }\n    //* Functions - Getter */\n    //Get balance of contract address\n    function getContractBalance() public view returns (uint) {\n        uint contractBalance = address(this).balance;\n        return contractBalance;\n    }\n\n}",
  "sourcePath": "/Users/adrianlawson/Documents/IoT/Ethereum-Course-Advanced/CoinFlipDapp_Phase2/contracts/Raffle.sol",
  "compiler": {
    "name": "solc",
    "version": "0.5.12+commit.7709ece9.Emscripten.clang"
  },
  "schemaVersion": "3.3.3",
  "updatedAt": "2021-03-05T20:56:13.341Z",
  "networkType": "ethereum",
  "devdoc": {
    "methods": {
      "__callback(bytes32,string)": {
        "details": "The following `__callback` functions are just placeholders ideally     meant to be defined in child contract when proofs are used.     The function bodies simply silence compiler warnings."
      }
    }
  },
  "userdoc": {
    "methods": {}
  }
}